{
  "abi": [
    {
      "inputs": [
        {
          "internalType": "string",
          "name": "_name",
          "type": "string"
        },
        {
          "internalType": "string",
          "name": "_symbol",
          "type": "string"
        }
      ],
      "stateMutability": "nonpayable",
      "type": "constructor"
    },
    {
      "inputs": [],
      "name": "IsZeroAddress",
      "type": "error"
    },
    {
      "anonymous": false,
      "inputs": [
        {
          "indexed": true,
          "internalType": "address",
          "name": "account",
          "type": "address"
        },
        {
          "indexed": true,
          "internalType": "address",
          "name": "operator",
          "type": "address"
        },
        {
          "indexed": false,
          "internalType": "bool",
          "name": "approved",
          "type": "bool"
        }
      ],
      "name": "ApprovalForAll",
      "type": "event"
    },
    {
      "anonymous": false,
      "inputs": [
        {
          "indexed": true,
          "internalType": "address",
          "name": "employer",
          "type": "address"
        },
        {
          "indexed": true,
          "internalType": "address",
          "name": "employee",
          "type": "address"
        },
        {
          "indexed": false,
          "internalType": "uint256",
          "name": "tokenId",
          "type": "uint256"
        }
      ],
      "name": "MintPair",
      "type": "event"
    },
    {
      "anonymous": false,
      "inputs": [
        {
          "indexed": true,
          "internalType": "address",
          "name": "operator",
          "type": "address"
        },
        {
          "indexed": true,
          "internalType": "address",
          "name": "from",
          "type": "address"
        },
        {
          "indexed": true,
          "internalType": "address",
          "name": "to",
          "type": "address"
        },
        {
          "indexed": false,
          "internalType": "uint256[]",
          "name": "ids",
          "type": "uint256[]"
        },
        {
          "indexed": false,
          "internalType": "uint256[]",
          "name": "values",
          "type": "uint256[]"
        }
      ],
      "name": "TransferBatch",
      "type": "event"
    },
    {
      "anonymous": false,
      "inputs": [
        {
          "indexed": true,
          "internalType": "address",
          "name": "operator",
          "type": "address"
        },
        {
          "indexed": true,
          "internalType": "address",
          "name": "from",
          "type": "address"
        },
        {
          "indexed": true,
          "internalType": "address",
          "name": "to",
          "type": "address"
        },
        {
          "indexed": false,
          "internalType": "uint256",
          "name": "id",
          "type": "uint256"
        },
        {
          "indexed": false,
          "internalType": "uint256",
          "name": "value",
          "type": "uint256"
        }
      ],
      "name": "TransferSingle",
      "type": "event"
    },
    {
      "anonymous": false,
      "inputs": [
        {
          "indexed": false,
          "internalType": "string",
          "name": "value",
          "type": "string"
        },
        {
          "indexed": true,
          "internalType": "uint256",
          "name": "id",
          "type": "uint256"
        }
      ],
      "name": "URI",
      "type": "event"
    },
    {
      "inputs": [
        {
          "internalType": "address",
          "name": "account",
          "type": "address"
        },
        {
          "internalType": "uint256",
          "name": "id",
          "type": "uint256"
        }
      ],
      "name": "balanceOf",
      "outputs": [
        {
          "internalType": "uint256",
          "name": "",
          "type": "uint256"
        }
      ],
      "stateMutability": "view",
      "type": "function"
    },
    {
      "inputs": [
        {
          "internalType": "address[]",
          "name": "accounts",
          "type": "address[]"
        },
        {
          "internalType": "uint256[]",
          "name": "ids",
          "type": "uint256[]"
        }
      ],
      "name": "balanceOfBatch",
      "outputs": [
        {
          "internalType": "uint256[]",
          "name": "",
          "type": "uint256[]"
        }
      ],
      "stateMutability": "view",
      "type": "function"
    },
    {
      "inputs": [
        {
          "internalType": "address",
          "name": "account",
          "type": "address"
        },
        {
          "internalType": "address",
          "name": "operator",
          "type": "address"
        }
      ],
      "name": "isApprovedForAll",
      "outputs": [
        {
          "internalType": "bool",
          "name": "",
          "type": "bool"
        }
      ],
      "stateMutability": "view",
      "type": "function"
    },
    {
      "inputs": [
        {
          "internalType": "address",
          "name": "_employer",
          "type": "address"
        },
        {
          "internalType": "address",
          "name": "_employee",
          "type": "address"
        },
        {
          "internalType": "string",
          "name": "contractName",
          "type": "string"
        }
      ],
      "name": "mintPair",
      "outputs": [],
      "stateMutability": "nonpayable",
      "type": "function"
    },
    {
      "inputs": [],
      "name": "name",
      "outputs": [
        {
          "internalType": "string",
          "name": "",
          "type": "string"
        }
      ],
      "stateMutability": "view",
      "type": "function"
    },
    {
      "inputs": [
        {
          "internalType": "address",
          "name": "from",
          "type": "address"
        },
        {
          "internalType": "address",
          "name": "to",
          "type": "address"
        },
        {
          "internalType": "uint256[]",
          "name": "ids",
          "type": "uint256[]"
        },
        {
          "internalType": "uint256[]",
          "name": "amounts",
          "type": "uint256[]"
        },
        {
          "internalType": "bytes",
          "name": "data",
          "type": "bytes"
        }
      ],
      "name": "safeBatchTransferFrom",
      "outputs": [],
      "stateMutability": "nonpayable",
      "type": "function"
    },
    {
      "inputs": [
        {
          "internalType": "address",
          "name": "from",
          "type": "address"
        },
        {
          "internalType": "address",
          "name": "to",
          "type": "address"
        },
        {
          "internalType": "uint256",
          "name": "id",
          "type": "uint256"
        },
        {
          "internalType": "uint256",
          "name": "amount",
          "type": "uint256"
        },
        {
          "internalType": "bytes",
          "name": "data",
          "type": "bytes"
        }
      ],
      "name": "safeTransferFrom",
      "outputs": [],
      "stateMutability": "nonpayable",
      "type": "function"
    },
    {
      "inputs": [
        {
          "internalType": "address",
          "name": "operator",
          "type": "address"
        },
        {
          "internalType": "bool",
          "name": "approved",
          "type": "bool"
        }
      ],
      "name": "setApprovalForAll",
      "outputs": [],
      "stateMutability": "nonpayable",
      "type": "function"
    },
    {
      "inputs": [
        {
          "internalType": "bytes4",
          "name": "interfaceId",
          "type": "bytes4"
        }
      ],
      "name": "supportsInterface",
      "outputs": [
        {
          "internalType": "bool",
          "name": "",
          "type": "bool"
        }
      ],
      "stateMutability": "view",
      "type": "function"
    },
    {
      "inputs": [],
      "name": "symbol",
      "outputs": [
        {
          "internalType": "string",
          "name": "",
          "type": "string"
        }
      ],
      "stateMutability": "view",
      "type": "function"
    },
    {
      "inputs": [
        {
          "internalType": "uint256",
          "name": "tokenId",
          "type": "uint256"
        }
      ],
      "name": "uri",
      "outputs": [
        {
          "internalType": "string",
          "name": "",
          "type": "string"
        }
      ],
      "stateMutability": "view",
      "type": "function"
    }
  ],
  "bytecode": {
    "object": "0x60a0604052600060809081526003906200001a90826200014d565b5060016006553480156200002d57600080fd5b50604051620025e5380380620025e58339810160408190526200005091620002c8565b6040805160208101909152600081526200006a8162000096565b50600160055560076200007e83826200014d565b5060086200008d82826200014d565b50505062000332565b6002620000a482826200014d565b5050565b634e487b7160e01b600052604160045260246000fd5b600181811c90821680620000d357607f821691505b602082108103620000f457634e487b7160e01b600052602260045260246000fd5b50919050565b601f8211156200014857600081815260208120601f850160051c81016020861015620001235750805b601f850160051c820191505b8181101562000144578281556001016200012f565b5050505b505050565b81516001600160401b03811115620001695762000169620000a8565b62000181816200017a8454620000be565b84620000fa565b602080601f831160018114620001b95760008415620001a05750858301515b600019600386901b1c1916600185901b17855562000144565b600085815260208120601f198616915b82811015620001ea57888601518255948401946001909101908401620001c9565b5085821015620002095787850151600019600388901b60f8161c191681555b5050505050600190811b01905550565b600082601f8301126200022b57600080fd5b81516001600160401b0380821115620002485762000248620000a8565b604051601f8301601f19908116603f01168101908282118183101715620002735762000273620000a8565b816040528381526020925086838588010111156200029057600080fd5b600091505b83821015620002b4578582018301518183018401529082019062000295565b600093810190920192909252949350505050565b60008060408385031215620002dc57600080fd5b82516001600160401b0380821115620002f457600080fd5b620003028683870162000219565b935060208501519150808211156200031957600080fd5b50620003288582860162000219565b9150509250929050565b6122a380620003426000396000f3fe608060405234801561001057600080fd5b50600436106100a85760003560e01c80634e1273f4116100715780634e1273f41461013357806362fcfc8e1461015357806395d89b4114610166578063a22cb4651461016e578063e985e9c514610181578063f242432a146101bd57600080fd5b8062fdd58e146100ad57806301ffc9a7146100d357806306fdde03146100f65780630e89341c1461010b5780632eb2c2d61461011e575b600080fd5b6100c06100bb366004611405565b6101d0565b6040519081526020015b60405180910390f35b6100e66100e1366004611448565b610269565b60405190151581526020016100ca565b6100fe610274565b6040516100ca91906114b5565b6100fe6101193660046114c8565b610302565b61013161012c366004611637565b61030d565b005b6101466101413660046116e1565b610359565b6040516100ca91906117e7565b6101316101613660046117fa565b610483565b6100fe6105ae565b61013161017c36600461186c565b6105bb565b6100e661018f3660046118a8565b6001600160a01b03918216600090815260016020908152604080832093909416825291909152205460ff1690565b6101316101cb3660046118db565b6105ca565b60006001600160a01b0383166102405760405162461bcd60e51b815260206004820152602a60248201527f455243313135353a2061646472657373207a65726f206973206e6f742061207660448201526930b634b21037bbb732b960b11b60648201526084015b60405180910390fd5b506000818152602081815260408083206001600160a01b03861684529091529020545b92915050565b60006102638261060f565b6007805461028190611940565b80601f01602080910402602001604051908101604052809291908181526020018280546102ad90611940565b80156102fa5780601f106102cf576101008083540402835291602001916102fa565b820191906000526020600020905b8154815290600101906020018083116102dd57829003601f168201915b505050505081565b60606102638261065f565b6001600160a01b0385163314806103295750610329853361018f565b6103455760405162461bcd60e51b81526004016102379061197a565b610352858585858561073f565b5050505050565b606081518351146103be5760405162461bcd60e51b815260206004820152602960248201527f455243313135353a206163636f756e747320616e6420696473206c656e677468604482015268040dad2e6dac2e8c6d60bb1b6064820152608401610237565b6000835167ffffffffffffffff8111156103da576103da6114e1565b604051908082528060200260200182016040528015610403578160200160208202803683370190505b50905060005b845181101561047b5761044e858281518110610427576104276119c8565b6020026020010151858381518110610441576104416119c8565b60200260200101516101d0565b828281518110610460576104606119c8565b6020908102919091010152610474816119f4565b9050610409565b509392505050565b61048b61092a565b6001600160a01b03831615806104a857506001600160a01b038216155b806104c55750816001600160a01b0316836001600160a01b031614155b156104e357604051631326d6d560e01b815260040160405180910390fd5b61050183600654600160405180602001604052806000815250610983565b61051f82600654600160405180602001604052806000815250610983565b61053660065461053160065484610aa6565b610b0f565b6001600660008282546105499190611a0d565b92505081905550816001600160a01b0316836001600160a01b03167f07a15d2ae302b602cdc03baf37bdde327bcfc3293d84ee8f28ea0c4fe01ab2f660065460405161059791815260200190565b60405180910390a36105a96001600555565b505050565b6008805461028190611940565b6105c6338383610b6c565b5050565b6001600160a01b0385163314806105e657506105e6853361018f565b6106025760405162461bcd60e51b81526004016102379061197a565b6103528585858585610c4c565b60006001600160e01b03198216636cdb3d1360e11b148061064057506001600160e01b031982166303a24d0760e21b145b8061026357506301ffc9a760e01b6001600160e01b0319831614610263565b60008181526004602052604081208054606092919061067d90611940565b80601f01602080910402602001604051908101604052809291908181526020018280546106a990611940565b80156106f65780601f106106cb576101008083540402835291602001916106f6565b820191906000526020600020905b8154815290600101906020018083116106d957829003601f168201915b5050505050905060008151116107145761070f83610d84565b610738565b600381604051602001610728929190611a3c565b6040516020818303038152906040525b9392505050565b81518351146107a15760405162461bcd60e51b815260206004820152602860248201527f455243313135353a2069647320616e6420616d6f756e7473206c656e677468206044820152670dad2e6dac2e8c6d60c31b6064820152608401610237565b6001600160a01b0384166107c75760405162461bcd60e51b815260040161023790611ac3565b336107d6818787878787610e18565b60005b84518110156108bc5760008582815181106107f6576107f66119c8565b602002602001015190506000858381518110610814576108146119c8565b602090810291909101810151600084815280835260408082206001600160a01b038e1683529093529190912054909150818110156108645760405162461bcd60e51b815260040161023790611b08565b6000838152602081815260408083206001600160a01b038e8116855292528083208585039055908b168252812080548492906108a1908490611a0d565b92505081905550505050806108b5906119f4565b90506107d9565b50846001600160a01b0316866001600160a01b0316826001600160a01b03167f4a39dc06d4c0dbc64b70af90fd698a233a518aa5d07e595d983b8c0526c8f7fb878760405161090c929190611b52565b60405180910390a4610922818787878787610e81565b505050505050565b60026005540361097c5760405162461bcd60e51b815260206004820152601f60248201527f5265656e7472616e637947756172643a207265656e7472616e742063616c6c006044820152606401610237565b6002600555565b6001600160a01b0384166109e35760405162461bcd60e51b815260206004820152602160248201527f455243313135353a206d696e7420746f20746865207a65726f206164647265736044820152607360f81b6064820152608401610237565b3360006109ef85610fdc565b905060006109fc85610fdc565b9050610a0d83600089858589610e18565b6000868152602081815260408083206001600160a01b038b16845290915281208054879290610a3d908490611a0d565b909155505060408051878152602081018790526001600160a01b03808a1692600092918716917fc3d58168c5ae7397731d063d5bbf3d657854427343f4c083240f7aacaa2d0f62910160405180910390a4610a9d83600089898989611027565b50505050505050565b60606000610ab3846110e2565b610abc84611175565b604051602001610acd929190611b80565b6040516020818303038152906040529050610ae7816111be565b604051602001610af79190611c5c565b60405160208183030381529060405291505092915050565b6000828152600460205260409020610b278282611ce7565b50817f6bb7ff708619ba0610cba295a58592e0451dee2622938c8755667688daf3529b610b5384610302565b604051610b6091906114b5565b60405180910390a25050565b816001600160a01b0316836001600160a01b031603610bdf5760405162461bcd60e51b815260206004820152602960248201527f455243313135353a2073657474696e6720617070726f76616c20737461747573604482015268103337b91039b2b63360b91b6064820152608401610237565b6001600160a01b03838116600081815260016020908152604080832094871680845294825291829020805460ff191686151590811790915591519182527f17307eab39ab6107e8899845ad3d59bd9653f200f220920489ca2b5937696c31910160405180910390a3505050565b6001600160a01b038416610c725760405162461bcd60e51b815260040161023790611ac3565b336000610c7e85610fdc565b90506000610c8b85610fdc565b9050610c9b838989858589610e18565b6000868152602081815260408083206001600160a01b038c16845290915290205485811015610cdc5760405162461bcd60e51b815260040161023790611b08565b6000878152602081815260408083206001600160a01b038d8116855292528083208985039055908a16825281208054889290610d19908490611a0d565b909155505060408051888152602081018890526001600160a01b03808b16928c821692918816917fc3d58168c5ae7397731d063d5bbf3d657854427343f4c083240f7aacaa2d0f62910160405180910390a4610d79848a8a8a8a8a611027565b505050505050505050565b606060028054610d9390611940565b80601f0160208091040260200160405190810160405280929190818152602001828054610dbf90611940565b8015610e0c5780601f10610de157610100808354040283529160200191610e0c565b820191906000526020600020905b815481529060010190602001808311610def57829003601f168201915b50505050509050919050565b6001600160a01b0385161580610e3557506001600160a01b038416155b6109225760405162461bcd60e51b815260206004820152601d60248201527f4e6f7420616c6c6f77656420746f207472616e7366657220746f6b656e0000006044820152606401610237565b6001600160a01b0384163b156109225760405163bc197c8160e01b81526001600160a01b0385169063bc197c8190610ec59089908990889088908890600401611da7565b6020604051808303816000875af1925050508015610f00575060408051601f3d908101601f19168201909252610efd91810190611e05565b60015b610fac57610f0c611e22565b806308c379a003610f455750610f20611e3e565b80610f2b5750610f47565b8060405162461bcd60e51b815260040161023791906114b5565b505b60405162461bcd60e51b815260206004820152603460248201527f455243313135353a207472616e7366657220746f206e6f6e2d455243313135356044820152732932b1b2b4bb32b91034b6b83632b6b2b73a32b960611b6064820152608401610237565b6001600160e01b0319811663bc197c8160e01b14610a9d5760405162461bcd60e51b815260040161023790611ec8565b60408051600180825281830190925260609160009190602080830190803683370190505090508281600081518110611016576110166119c8565b602090810291909101015292915050565b6001600160a01b0384163b156109225760405163f23a6e6160e01b81526001600160a01b0385169063f23a6e619061106b9089908990889088908890600401611f10565b6020604051808303816000875af19250505080156110a6575060408051601f3d908101601f191682019092526110a391810190611e05565b60015b6110b257610f0c611e22565b6001600160e01b0319811663f23a6e6160e01b14610a9d5760405162461bcd60e51b815260040161023790611ec8565b606060006110ef83611311565b600101905060008167ffffffffffffffff81111561110f5761110f6114e1565b6040519080825280601f01601f191660200182016040528015611139576020820181803683370190505b5090508181016020015b600019016f181899199a1a9b1b9c1cb0b131b232b360811b600a86061a8153600a850494508461114357509392505050565b6060600082611183426110e2565b604051602001611194929190611f55565b60405160208183030381529060405290506111ae816111be565b60405160200161072891906121af565b606081516000036111dd57505060408051602081019091526000815290565b600060405180606001604052806040815260200161222e604091399050600060038451600261120c9190611a0d565b61121691906121f4565b611221906004612216565b67ffffffffffffffff811115611239576112396114e1565b6040519080825280601f01601f191660200182016040528015611263576020820181803683370190505b509050600182016020820185865187015b808210156112cf576003820191508151603f8160121c168501518453600184019350603f81600c1c168501518453600184019350603f8160061c168501518453600184019350603f8116850151845350600183019250611274565b50506003865106600181146112eb57600281146112fe57611306565b603d6001830353603d6002830353611306565b603d60018303535b509195945050505050565b60008072184f03e93ff9f4daa797ed6e38ed64bf6a1f0160401b83106113505772184f03e93ff9f4daa797ed6e38ed64bf6a1f0160401b830492506040015b6d04ee2d6d415b85acef8100000000831061137c576d04ee2d6d415b85acef8100000000830492506020015b662386f26fc10000831061139a57662386f26fc10000830492506010015b6305f5e10083106113b2576305f5e100830492506008015b61271083106113c657612710830492506004015b606483106113d8576064830492506002015b600a83106102635760010192915050565b80356001600160a01b038116811461140057600080fd5b919050565b6000806040838503121561141857600080fd5b611421836113e9565b946020939093013593505050565b6001600160e01b03198116811461144557600080fd5b50565b60006020828403121561145a57600080fd5b81356107388161142f565b60005b83811015611480578181015183820152602001611468565b50506000910152565b600081518084526114a1816020860160208601611465565b601f01601f19169290920160200192915050565b6020815260006107386020830184611489565b6000602082840312156114da57600080fd5b5035919050565b634e487b7160e01b600052604160045260246000fd5b601f8201601f1916810167ffffffffffffffff8111828210171561151d5761151d6114e1565b6040525050565b600067ffffffffffffffff82111561153e5761153e6114e1565b5060051b60200190565b600082601f83011261155957600080fd5b8135602061156682611524565b60405161157382826114f7565b83815260059390931b850182019282810191508684111561159357600080fd5b8286015b848110156115ae5780358352918301918301611597565b509695505050505050565b600067ffffffffffffffff8311156115d3576115d36114e1565b6040516115ea601f8501601f1916602001826114f7565b8091508381528484840111156115ff57600080fd5b83836020830137600060208583010152509392505050565b600082601f83011261162857600080fd5b610738838335602085016115b9565b600080600080600060a0868803121561164f57600080fd5b611658866113e9565b9450611666602087016113e9565b9350604086013567ffffffffffffffff8082111561168357600080fd5b61168f89838a01611548565b945060608801359150808211156116a557600080fd5b6116b189838a01611548565b935060808801359150808211156116c757600080fd5b506116d488828901611617565b9150509295509295909350565b600080604083850312156116f457600080fd5b823567ffffffffffffffff8082111561170c57600080fd5b818501915085601f83011261172057600080fd5b8135602061172d82611524565b60405161173a82826114f7565b83815260059390931b850182019282810191508984111561175a57600080fd5b948201945b8386101561177f57611770866113e9565b8252948201949082019061175f565b9650508601359250508082111561179557600080fd5b506117a285828601611548565b9150509250929050565b600081518084526020808501945080840160005b838110156117dc578151875295820195908201906001016117c0565b509495945050505050565b60208152600061073860208301846117ac565b60008060006060848603121561180f57600080fd5b611818846113e9565b9250611826602085016113e9565b9150604084013567ffffffffffffffff81111561184257600080fd5b8401601f8101861361185357600080fd5b611862868235602084016115b9565b9150509250925092565b6000806040838503121561187f57600080fd5b611888836113e9565b91506020830135801515811461189d57600080fd5b809150509250929050565b600080604083850312156118bb57600080fd5b6118c4836113e9565b91506118d2602084016113e9565b90509250929050565b600080600080600060a086880312156118f357600080fd5b6118fc866113e9565b945061190a602087016113e9565b93506040860135925060608601359150608086013567ffffffffffffffff81111561193457600080fd5b6116d488828901611617565b600181811c9082168061195457607f821691505b60208210810361197457634e487b7160e01b600052602260045260246000fd5b50919050565b6020808252602e908201527f455243313135353a2063616c6c6572206973206e6f7420746f6b656e206f776e60408201526d195c881bdc88185c1c1c9bdd995960921b606082015260800190565b634e487b7160e01b600052603260045260246000fd5b634e487b7160e01b600052601160045260246000fd5b600060018201611a0657611a066119de565b5060010190565b80820180821115610263576102636119de565b60008151611a32818560208601611465565b9290920192915050565b6000808454611a4a81611940565b60018281168015611a625760018114611a7757611aa6565b60ff1984168752821515830287019450611aa6565b8860005260208060002060005b85811015611a9d5781548a820152908401908201611a84565b50505082870194505b505050508351611aba818360208801611465565b01949350505050565b60208082526025908201527f455243313135353a207472616e7366657220746f20746865207a65726f206164604082015264647265737360d81b606082015260800190565b6020808252602a908201527f455243313135353a20696e73756666696369656e742062616c616e636520666f60408201526939103a3930b739b332b960b11b606082015260800190565b604081526000611b6560408301856117ac565b8281036020840152611b7781856117ac565b95945050505050565b607b60f81b81527f226e616d65223a2022736d61727420706179726f6c6c20636f6e7472616374206001820152602360f81b602182015260008351611bcc816022850160208801611465565b61088b60f21b6022918401918201527f226465736372697074696f6e223a2022736d61727420706179726f6c6c206f6e6024820152670818da185a5b888b60c21b6044820152691134b6b0b3b2911d101160b11b604c8201528351611c38816056840160208801611465565b601160f91b60569290910191820152607d60f81b6057820152605801949350505050565b7f646174613a6170706c69636174696f6e2f6a736f6e3b6261736536342c000000815260008251611c9481601d850160208701611465565b91909101601d0192915050565b601f8211156105a957600081815260208120601f850160051c81016020861015611cc85750805b601f850160051c820191505b8181101561092257828155600101611cd4565b815167ffffffffffffffff811115611d0157611d016114e1565b611d1581611d0f8454611940565b84611ca1565b602080601f831160018114611d4a5760008415611d325750858301515b600019600386901b1c1916600185901b178555610922565b600085815260208120601f198616915b82811015611d7957888601518255948401946001909101908401611d5a565b5085821015611d975787850151600019600388901b60f8161c191681555b5050505050600190811b01905550565b6001600160a01b0386811682528516602082015260a060408201819052600090611dd3908301866117ac565b8281036060840152611de581866117ac565b90508281036080840152611df98185611489565b98975050505050505050565b600060208284031215611e1757600080fd5b81516107388161142f565b600060033d1115611e3b5760046000803e5060005160e01c5b90565b600060443d1015611e4c5790565b6040516003193d81016004833e81513d67ffffffffffffffff8160248401118184111715611e7c57505050505090565b8285019150815181811115611e945750505050505090565b843d8701016020828501011115611eae5750505050505090565b611ebd602082860101876114f7565b509095945050505050565b60208082526028908201527f455243313135353a204552433131353552656365697665722072656a656374656040820152676420746f6b656e7360c01b606082015260800190565b6001600160a01b03868116825285166020820152604081018490526060810183905260a060808201819052600090611f4a90830184611489565b979650505050505050565b7f3c73766720786d6c6e733d22687474703a2f2f7777772e77332e6f72672f323081527f30302f73766722207072657365727665417370656374526174696f3d22784d6960208201527f6e594d696e206d656574222076696577426f783d223020302033353020333530604082015261111f60f11b60608201527f3c7374796c653e2e62617365207b2066696c6c3a2077686974653b20666f6e7460628201527f2d66616d696c793a2073657269663b20666f6e742d73697a653a20313470783b608282015269103e9e17b9ba3cb6329f60b11b60a28201527f3c726563742077696474683d223130302522206865696768743d22313030252260ac8201526f103334b6361e91313630b1b59110179f60811b60cc8201527f3c7465787420783d223530252220793d223430252220636c6173733d2262617360dc8201527f652220646f6d696e616e742d626173656c696e653d226d6964646c652220746560fc820152723c3a16b0b731b437b91e9136b4b2323632911f60691b61011c82015260006121a76121956120f661218f6121746121098361012f89018b611a20565b661e17ba32bc3a1f60c91b815260070190565b7f3c7465787420783d223530252220793d223530252220636c6173733d2262617381527f652220646f6d696e616e742d626173656c696e653d226d6964646c65222074656020820152723c3a16b0b731b437b91e9136b4b2323632911f60691b604082015260530190565b6e0213637b1b5a230ba32aa34b6b29d1608d1b8152600f0190565b86611a20565b651e17b9bb339f60d11b815260060190565b949350505050565b7f646174613a696d6167652f7376672b786d6c3b6261736536342c0000000000008152600082516121e781601a850160208701611465565b91909101601a0192915050565b60008261221157634e487b7160e01b600052601260045260246000fd5b500490565b8082028115828204841417610263576102636119de56fe4142434445464748494a4b4c4d4e4f505152535455565758595a6162636465666768696a6b6c6d6e6f707172737475767778797a303132333435363738392b2fa26469706673582212202f8b77dba87dd78f62275b4014ea63a0eca52ff029ef85325bb7e849a414f2e464736f6c63430008130033",
    "linkReferences": {}
  },
  "methodIdentifiers": {
    "balanceOf(address,uint256)": "00fdd58e",
    "balanceOfBatch(address[],uint256[])": "4e1273f4",
    "isApprovedForAll(address,address)": "e985e9c5",
    "mintPair(address,address,string)": "62fcfc8e",
    "name()": "06fdde03",
    "safeBatchTransferFrom(address,address,uint256[],uint256[],bytes)": "2eb2c2d6",
    "safeTransferFrom(address,address,uint256,uint256,bytes)": "f242432a",
    "setApprovalForAll(address,bool)": "a22cb465",
    "supportsInterface(bytes4)": "01ffc9a7",
    "symbol()": "95d89b41",
    "uri(uint256)": "0e89341c"
  },
  "id": 0
}